{
  "contractName": "AccountManager",
  "abi": [
    {
      "constant": true,
      "inputs": [
        {
          "internalType": "address",
          "name": "",
          "type": "address"
        }
      ],
      "name": "accounts",
      "outputs": [
        {
          "internalType": "string",
          "name": "name",
          "type": "string"
        },
        {
          "internalType": "address",
          "name": "id",
          "type": "address"
        },
        {
          "internalType": "bool",
          "name": "instantiated",
          "type": "bool"
        },
        {
          "internalType": "int256",
          "name": "balance",
          "type": "int256"
        },
        {
          "internalType": "int256",
          "name": "allowedOverdraft",
          "type": "int256"
        }
      ],
      "payable": false,
      "stateMutability": "view",
      "type": "function"
    },
    {
      "constant": true,
      "inputs": [
        {
          "internalType": "address",
          "name": "",
          "type": "address"
        }
      ],
      "name": "balance",
      "outputs": [
        {
          "internalType": "int256",
          "name": "",
          "type": "int256"
        }
      ],
      "payable": false,
      "stateMutability": "view",
      "type": "function"
    },
    {
      "constant": false,
      "inputs": [
        {
          "internalType": "address",
          "name": "addr",
          "type": "address"
        },
        {
          "internalType": "string",
          "name": "name",
          "type": "string"
        },
        {
          "internalType": "int256",
          "name": "initialBalance",
          "type": "int256"
        },
        {
          "internalType": "int256",
          "name": "allowedOverdraft",
          "type": "int256"
        }
      ],
      "name": "CreateAccount",
      "outputs": [
        {
          "internalType": "bool",
          "name": "createdAcc",
          "type": "bool"
        }
      ],
      "payable": false,
      "stateMutability": "nonpayable",
      "type": "function"
    },
    {
      "constant": true,
      "inputs": [
        {
          "internalType": "address",
          "name": "addr",
          "type": "address"
        }
      ],
      "name": "getAllowedOverdraft",
      "outputs": [
        {
          "internalType": "int256",
          "name": "allowedOverdraft",
          "type": "int256"
        }
      ],
      "payable": false,
      "stateMutability": "view",
      "type": "function"
    },
    {
      "constant": false,
      "inputs": [
        {
          "internalType": "address",
          "name": "addr",
          "type": "address"
        },
        {
          "internalType": "int256",
          "name": "newAllowed",
          "type": "int256"
        }
      ],
      "name": "setAllowedOverdraft",
      "outputs": [
        {
          "internalType": "bool",
          "name": "success",
          "type": "bool"
        }
      ],
      "payable": false,
      "stateMutability": "nonpayable",
      "type": "function"
    },
    {
      "constant": true,
      "inputs": [
        {
          "internalType": "address",
          "name": "addr",
          "type": "address"
        }
      ],
      "name": "getName",
      "outputs": [
        {
          "internalType": "string",
          "name": "name",
          "type": "string"
        }
      ],
      "payable": false,
      "stateMutability": "view",
      "type": "function"
    },
    {
      "constant": false,
      "inputs": [
        {
          "internalType": "address",
          "name": "addr",
          "type": "address"
        },
        {
          "internalType": "string",
          "name": "newName",
          "type": "string"
        }
      ],
      "name": "setName",
      "outputs": [
        {
          "internalType": "bool",
          "name": "success",
          "type": "bool"
        }
      ],
      "payable": false,
      "stateMutability": "nonpayable",
      "type": "function"
    },
    {
      "constant": true,
      "inputs": [
        {
          "internalType": "address",
          "name": "addr",
          "type": "address"
        }
      ],
      "name": "currentBalance",
      "outputs": [
        {
          "internalType": "int256",
          "name": "",
          "type": "int256"
        }
      ],
      "payable": false,
      "stateMutability": "view",
      "type": "function"
    },
    {
      "constant": false,
      "inputs": [
        {
          "internalType": "address",
          "name": "addr",
          "type": "address"
        },
        {
          "internalType": "int256",
          "name": "amount",
          "type": "int256"
        }
      ],
      "name": "withdraw",
      "outputs": [
        {
          "internalType": "bool",
          "name": "success",
          "type": "bool"
        }
      ],
      "payable": false,
      "stateMutability": "nonpayable",
      "type": "function"
    },
    {
      "constant": false,
      "inputs": [
        {
          "internalType": "address",
          "name": "addr",
          "type": "address"
        },
        {
          "internalType": "int256",
          "name": "amount",
          "type": "int256"
        }
      ],
      "name": "deposit",
      "outputs": [
        {
          "internalType": "int256",
          "name": "newBalance",
          "type": "int256"
        }
      ],
      "payable": false,
      "stateMutability": "nonpayable",
      "type": "function"
    }
  ],
  "bytecode": "0x608060405234801561001057600080fd5b50611020806100206000396000f3fe608060405234801561001057600080fd5b506004361061009d5760003560e01c80637da7d3f1116100665780637da7d3f1146104c45780639311b5161461052a5780639e546c3814610582578063e3d670d7146105da578063fb3e4a21146106325761009d565b8062efb36a146100a25780631a8dea36146101a95780633121db1c1461020b5780635e5c06e2146102fe5780635fd4b08a14610407575b600080fd5b61018f600480360360808110156100b857600080fd5b81019080803573ffffffffffffffffffffffffffffffffffffffff169060200190929190803590602001906401000000008111156100f557600080fd5b82018360208201111561010757600080fd5b8035906020019184600183028401116401000000008311171561012957600080fd5b91908080601f016020809104026020016040519081016040528093929190818152602001838380828437600081840152601f19601f8201169050808301925050505050505091929192908035906020019092919080359060200190929190505050610698565b604051808215151515815260200191505060405180910390f35b6101f5600480360360408110156101bf57600080fd5b81019080803573ffffffffffffffffffffffffffffffffffffffff1690602001909291908035906020019092919050505061098b565b6040518082815260200191505060405180910390f35b6102e46004803603604081101561022157600080fd5b81019080803573ffffffffffffffffffffffffffffffffffffffff1690602001909291908035906020019064010000000081111561025e57600080fd5b82018360208201111561027057600080fd5b8035906020019184600183028401116401000000008311171561029257600080fd5b91908080601f016020809104026020016040519081016040528093929190818152602001838380828437600081840152601f19601f8201169050808301925050505050505091929192905050506109ee565b604051808215151515815260200191505060405180910390f35b6103406004803603602081101561031457600080fd5b81019080803573ffffffffffffffffffffffffffffffffffffffff169060200190929190505050610aaf565b60405180806020018673ffffffffffffffffffffffffffffffffffffffff1673ffffffffffffffffffffffffffffffffffffffff16815260200185151515158152602001848152602001838152602001828103825287818151815260200191508051906020019080838360005b838110156103c85780820151818401526020810190506103ad565b50505050905090810190601f1680156103f55780820380516001836020036101000a031916815260200191505b50965050505050505060405180910390f35b6104496004803603602081101561041d57600080fd5b81019080803573ffffffffffffffffffffffffffffffffffffffff169060200190929190505050610baa565b6040518080602001828103825283818151815260200191508051906020019080838360005b8381101561048957808201518184015260208101905061046e565b50505050905090810190601f1680156104b65780820380516001836020036101000a031916815260200191505b509250505060405180910390f35b610510600480360360408110156104da57600080fd5b81019080803573ffffffffffffffffffffffffffffffffffffffff16906020019092919080359060200190929190505050610c8e565b604051808215151515815260200191505060405180910390f35b61056c6004803603602081101561054057600080fd5b81019080803573ffffffffffffffffffffffffffffffffffffffff169060200190929190505050610d1e565b6040518082815260200191505060405180910390f35b6105c46004803603602081101561059857600080fd5b81019080803573ffffffffffffffffffffffffffffffffffffffff169060200190929190505050610d6a565b6040518082815260200191505060405180910390f35b61061c600480360360208110156105f057600080fd5b81019080803573ffffffffffffffffffffffffffffffffffffffff169060200190929190505050610db6565b6040518082815260200191505060405180910390f35b61067e6004803603604081101561064857600080fd5b81019080803573ffffffffffffffffffffffffffffffffffffffff16906020019092919080359060200190929190505050610dce565b604051808215151515815260200191505060405180910390f35b60006106a2610e7f565b6040518060a001604052808681526020018773ffffffffffffffffffffffffffffffffffffffff16815260200160011515815260200185815260200184815250905080600160008873ffffffffffffffffffffffffffffffffffffffff1673ffffffffffffffffffffffffffffffffffffffff1681526020019081526020016000206000820151816000019080519060200190610740929190610ec6565b5060208201518160010160006101000a81548173ffffffffffffffffffffffffffffffffffffffff021916908373ffffffffffffffffffffffffffffffffffffffff16021790555060408201518160010160146101000a81548160ff02191690831515021790555060608201518160020155608082015181600301559050506107c7610e7f565b600160008873ffffffffffffffffffffffffffffffffffffffff1673ffffffffffffffffffffffffffffffffffffffff1681526020019081526020016000206040518060a0016040529081600082018054600181600116156101000203166002900480601f0160208091040260200160405190810160405280929190818152602001828054600181600116156101000203166002900480156108aa5780601f1061087f576101008083540402835291602001916108aa565b820191906000526020600020905b81548152906001019060200180831161088d57829003601f168201915b505050505081526020016001820160009054906101000a900473ffffffffffffffffffffffffffffffffffffffff1673ffffffffffffffffffffffffffffffffffffffff1673ffffffffffffffffffffffffffffffffffffffff1681526020016001820160149054906101000a900460ff1615151515815260200160028201548152602001600382015481525050905083816080015114801561094e575080604001515b801561095d5750848160600151145b801561096c5750838160800151145b1561097c57600192505050610983565b6000925050505b949350505050565b600081600160008573ffffffffffffffffffffffffffffffffffffffff1673ffffffffffffffffffffffffffffffffffffffff168152602001908152602001600020600201600082825401925050819055506109e683610d6a565b905092915050565b6000600160008473ffffffffffffffffffffffffffffffffffffffff1673ffffffffffffffffffffffffffffffffffffffff16815260200190815260200160002060010160149054906101000a900460ff16610a4d5760009050610aa9565b81600160008573ffffffffffffffffffffffffffffffffffffffff1673ffffffffffffffffffffffffffffffffffffffff1681526020019081526020016000206000019080519060200190610aa3929190610f46565b50600190505b92915050565b6001602052806000526040600020600091509050806000018054600181600116156101000203166002900480601f016020809104026020016040519081016040528092919081815260200182805460018160011615610100020316600290048015610b5b5780601f10610b3057610100808354040283529160200191610b5b565b820191906000526020600020905b815481529060010190602001808311610b3e57829003601f168201915b5050505050908060010160009054906101000a900473ffffffffffffffffffffffffffffffffffffffff16908060010160149054906101000a900460ff16908060020154908060030154905085565b6060600160008373ffffffffffffffffffffffffffffffffffffffff1673ffffffffffffffffffffffffffffffffffffffff1681526020019081526020016000206000018054600181600116156101000203166002900480601f016020809104026020016040519081016040528092919081815260200182805460018160011615610100020316600290048015610c825780601f10610c5757610100808354040283529160200191610c82565b820191906000526020600020905b815481529060010190602001808311610c6557829003601f168201915b50505050509050919050565b600080610c9a84610d1e565b6000039050600083610cab86610d6a565b03905081811315610d115783600160008773ffffffffffffffffffffffffffffffffffffffff1673ffffffffffffffffffffffffffffffffffffffff16815260200190815260200160002060020160008282540392505081905550600192505050610d18565b6000925050505b92915050565b6000600160008373ffffffffffffffffffffffffffffffffffffffff1673ffffffffffffffffffffffffffffffffffffffff168152602001908152602001600020600301549050919050565b6000600160008373ffffffffffffffffffffffffffffffffffffffff1673ffffffffffffffffffffffffffffffffffffffff168152602001908152602001600020600201549050919050565b60006020528060005260406000206000915090505481565b6000600160008473ffffffffffffffffffffffffffffffffffffffff1673ffffffffffffffffffffffffffffffffffffffff16815260200190815260200160002060010160149054906101000a900460ff16610e2d5760009050610e79565b81600160008573ffffffffffffffffffffffffffffffffffffffff1673ffffffffffffffffffffffffffffffffffffffff16815260200190815260200160002060030181905550600190505b92915050565b6040518060a0016040528060608152602001600073ffffffffffffffffffffffffffffffffffffffff16815260200160001515815260200160008152602001600081525090565b828054600181600116156101000203166002900490600052602060002090601f016020900481019282601f10610f0757805160ff1916838001178555610f35565b82800160010185558215610f35579182015b82811115610f34578251825591602001919060010190610f19565b5b509050610f429190610fc6565b5090565b828054600181600116156101000203166002900490600052602060002090601f016020900481019282601f10610f8757805160ff1916838001178555610fb5565b82800160010185558215610fb5579182015b82811115610fb4578251825591602001919060010190610f99565b5b509050610fc29190610fc6565b5090565b610fe891905b80821115610fe4576000816000905550600101610fcc565b5090565b9056fea265627a7a72315820c5220cc6fd689fb892b278270c550646cad837a3646e7fc19aae5f33db5e0ed864736f6c63430005100032",
  "source": "pragma solidity ^0.5.0;\r\n\r\ncontract AccountManager {\r\n    mapping(address => int) public balance; //Virtually store all possible combis\r\n    mapping(address => Account) public accounts;\r\n\r\n    //uint uint_default_val = 0;\r\n\r\n    struct Account {\r\n        string name;\r\n        address id;\r\n        bool instantiated;\r\n        int balance; //uint can't be negative\r\n        int allowedOverdraft;\r\n    }\r\n\r\n    function CreateAccount(address addr, string memory name, int initialBalance,\r\n                             int allowedOverdraft) public returns (bool createdAcc){\r\n        Account memory newAcc = Account(name, addr, true, initialBalance, allowedOverdraft);\r\n\r\n        accounts[addr] = newAcc;\r\n\r\n        Account memory newlyCreated = accounts[addr];\r\n\r\n        if(newlyCreated.allowedOverdraft == allowedOverdraft\r\n            && newlyCreated.instantiated \r\n            && newlyCreated.balance == initialBalance\r\n            && newlyCreated.allowedOverdraft == allowedOverdraft){\r\n            return true;\r\n        }\r\n\r\n        return false;\r\n    }\r\n\r\n    function getAllowedOverdraft(address addr) public view returns (int allowedOverdraft){\r\n        return accounts[addr].allowedOverdraft;\r\n    }\r\n\r\n    function setAllowedOverdraft(address addr, int newAllowed) public returns (bool success){\r\n        if(!accounts[addr].instantiated){\r\n            return false;\r\n        }\r\n\r\n        accounts[addr].allowedOverdraft = newAllowed;\r\n\r\n        return true;\r\n    }\r\n\r\n    function getName(address addr) public view returns (string memory name){\r\n        return accounts[addr].name;\r\n    }\r\n\r\n    function setName(address addr, string memory newName) public returns (bool success){\r\n        if(!accounts[addr].instantiated){\r\n            return false;\r\n        }\r\n        \r\n        accounts[addr].name = newName;\r\n\r\n        return true;\r\n    }\r\n\r\n    function currentBalance(address addr) public view returns (int){ //no modification\r\n        return accounts[addr].balance;\r\n    }\r\n\r\n    function withdraw(address addr, int amount) public returns (bool success){\r\n        int minBalance = 0 - getAllowedOverdraft(addr);\r\n        int newBalance = currentBalance(addr) - amount;\r\n        if(newBalance > minBalance){\r\n            accounts[addr].balance -= amount;\r\n            return true;\r\n        }\r\n\r\n        return false;\r\n    }\r\n\r\n    function deposit(address addr, int amount) public returns (int newBalance){\r\n        accounts[addr].balance += amount;\r\n\r\n        return currentBalance(addr);\r\n    }\r\n}",
  "sourcePath": "C:\\Users\\skakk\\software_proj\\eth_banking_contracts\\contracts\\AccountManager.sol",
  "compiler": {
    "name": "solc",
    "version": "0.5.16+commit.9c3226ce.Emscripten.clang"
  },
  "schemaVersion": "3.4.3",
  "updatedAt": "2021-10-22T08:32:47.144Z",
  "devdoc": {
    "methods": {}
  },
  "userdoc": {
    "methods": {}
  }
}